{
  "contractName": "TaskManagement",
  "abi": [
    {
      "anonymous": false,
      "inputs": [
        {
          "indexed": false,
          "internalType": "uint256",
          "name": "id",
          "type": "uint256"
        }
      ],
      "name": "TaskCompleted",
      "type": "event"
    },
    {
      "anonymous": false,
      "inputs": [
        {
          "indexed": false,
          "internalType": "uint256",
          "name": "id",
          "type": "uint256"
        },
        {
          "indexed": false,
          "internalType": "string",
          "name": "title",
          "type": "string"
        },
        {
          "indexed": false,
          "internalType": "string",
          "name": "assignedUser",
          "type": "string"
        }
      ],
      "name": "TaskCreated",
      "type": "event"
    },
    {
      "anonymous": false,
      "inputs": [
        {
          "indexed": false,
          "internalType": "uint256",
          "name": "id",
          "type": "uint256"
        },
        {
          "indexed": false,
          "internalType": "string",
          "name": "status",
          "type": "string"
        }
      ],
      "name": "TaskUpdated",
      "type": "event"
    },
    {
      "inputs": [],
      "name": "taskCount",
      "outputs": [
        {
          "internalType": "uint256",
          "name": "",
          "type": "uint256"
        }
      ],
      "stateMutability": "view",
      "type": "function",
      "constant": true
    },
    {
      "inputs": [
        {
          "internalType": "uint256",
          "name": "",
          "type": "uint256"
        }
      ],
      "name": "tasks",
      "outputs": [
        {
          "internalType": "uint256",
          "name": "id",
          "type": "uint256"
        },
        {
          "internalType": "string",
          "name": "title",
          "type": "string"
        },
        {
          "internalType": "string",
          "name": "description",
          "type": "string"
        },
        {
          "internalType": "string",
          "name": "status",
          "type": "string"
        },
        {
          "internalType": "string",
          "name": "assignedUser",
          "type": "string"
        },
        {
          "internalType": "uint256",
          "name": "timestamp",
          "type": "uint256"
        },
        {
          "internalType": "bool",
          "name": "isCompleted",
          "type": "bool"
        }
      ],
      "stateMutability": "view",
      "type": "function",
      "constant": true
    },
    {
      "inputs": [
        {
          "internalType": "string",
          "name": "_title",
          "type": "string"
        },
        {
          "internalType": "string",
          "name": "_description",
          "type": "string"
        },
        {
          "internalType": "string",
          "name": "_assignedUser",
          "type": "string"
        }
      ],
      "name": "createTask",
      "outputs": [],
      "stateMutability": "nonpayable",
      "type": "function"
    },
    {
      "inputs": [
        {
          "internalType": "uint256",
          "name": "_id",
          "type": "uint256"
        },
        {
          "internalType": "string",
          "name": "_status",
          "type": "string"
        }
      ],
      "name": "updateTaskStatus",
      "outputs": [],
      "stateMutability": "nonpayable",
      "type": "function"
    },
    {
      "inputs": [
        {
          "internalType": "uint256",
          "name": "_id",
          "type": "uint256"
        }
      ],
      "name": "completeTask",
      "outputs": [],
      "stateMutability": "nonpayable",
      "type": "function"
    }
  ],
  "bytecode": "0x608060405234801561001057600080fd5b50610cf3806100206000396000f3fe608060405234801561001057600080fd5b50600436106100575760003560e01c806383aa4d6d1461005c5780638d97767214610078578063b6cb58a5146100ae578063d2344f0a146100cc578063e1e29558146100e8575b600080fd5b61007660048036038101906100719190610892565b610104565b005b610092600480360381019061008d9190610869565b6101b6565b6040516100a59796959493929190610a2d565b60405180910390f35b6100b6610425565b6040516100c3919061099d565b60405180910390f35b6100e660048036038101906100e191906107d2565b61042b565b005b61010260048036038101906100fd9190610869565b6105b1565b005b600154821115610149576040517f08c379a00000000000000000000000000000000000000000000000000000000081526004016101409061097d565b60405180910390fd5b60008060008481526020019081526020016000209050818160030190805190602001906101779291906106b2565b507fde038a66d64727fc277f5f5f3d50b98d205e4ae705bfb8ac824cea4877b9be4983836040516101a99291906109b8565b60405180910390a1505050565b60006020528060005260406000206000915090508060000154908060010180546101df90610b8d565b80601f016020809104026020016040519081016040528092919081815260200182805461020b90610b8d565b80156102585780601f1061022d57610100808354040283529160200191610258565b820191906000526020600020905b81548152906001019060200180831161023b57829003601f168201915b50505050509080600201805461026d90610b8d565b80601f016020809104026020016040519081016040528092919081815260200182805461029990610b8d565b80156102e65780601f106102bb576101008083540402835291602001916102e6565b820191906000526020600020905b8154815290600101906020018083116102c957829003601f168201915b5050505050908060030180546102fb90610b8d565b80601f016020809104026020016040519081016040528092919081815260200182805461032790610b8d565b80156103745780601f1061034957610100808354040283529160200191610374565b820191906000526020600020905b81548152906001019060200180831161035757829003601f168201915b50505050509080600401805461038990610b8d565b80601f01602080910402602001604051908101604052809291908181526020018280546103b590610b8d565b80156104025780601f106103d757610100808354040283529160200191610402565b820191906000526020600020905b8154815290600101906020018083116103e557829003601f168201915b5050505050908060050154908060060160009054906101000a900460ff16905087565b60015481565b6001600081548092919061043e90610bbf565b91905055506040518060e0016040528060015481526020018481526020018381526020016040518060400160405280600781526020017f50656e64696e670000000000000000000000000000000000000000000000000081525081526020018281526020014281526020016000151581525060008060015481526020019081526020016000206000820151816000015560208201518160010190805190602001906104ea9291906106b2565b5060408201518160020190805190602001906105079291906106b2565b5060608201518160030190805190602001906105249291906106b2565b5060808201518160040190805190602001906105419291906106b2565b5060a0820151816005015560c08201518160060160006101000a81548160ff0219169083151502179055509050507f3aa7994277fd1283665573abffa8b1ef095947ad76908721a82ac157e8953d5a60015484836040516105a4939291906109e8565b60405180910390a1505050565b6001548111156105f6576040517f08c379a00000000000000000000000000000000000000000000000000000000081526004016105ed9061097d565b60405180910390fd5b6000806000838152602001908152602001600020905060018160060160006101000a81548160ff0219169083151502179055506040518060400160405280600981526020017f436f6d706c6574656400000000000000000000000000000000000000000000008152508160030190805190602001906106769291906106b2565b507fc1fa7142cfb933d0855114a3bffde296944c30b727f297c14d0db4d553d3a5c7826040516106a6919061099d565b60405180910390a15050565b8280546106be90610b8d565b90600052602060002090601f0160209004810192826106e05760008555610727565b82601f106106f957805160ff1916838001178555610727565b82800160010185558215610727579182015b8281111561072657825182559160200191906001019061070b565b5b5090506107349190610738565b5090565b5b80821115610751576000816000905550600101610739565b5090565b600061076861076384610ae9565b610ab8565b90508281526020810184848401111561078057600080fd5b61078b848285610b4b565b509392505050565b600082601f8301126107a457600080fd5b81356107b4848260208601610755565b91505092915050565b6000813590506107cc81610ca6565b92915050565b6000806000606084860312156107e757600080fd5b600084013567ffffffffffffffff81111561080157600080fd5b61080d86828701610793565b935050602084013567ffffffffffffffff81111561082a57600080fd5b61083686828701610793565b925050604084013567ffffffffffffffff81111561085357600080fd5b61085f86828701610793565b9150509250925092565b60006020828403121561087b57600080fd5b6000610889848285016107bd565b91505092915050565b600080604083850312156108a557600080fd5b60006108b3858286016107bd565b925050602083013567ffffffffffffffff8111156108d057600080fd5b6108dc85828601610793565b9150509250929050565b6108ef81610b35565b82525050565b600061090082610b19565b61090a8185610b24565b935061091a818560208601610b5a565b61092381610c95565b840191505092915050565b600061093b601383610b24565b91507f5461736b20646f6573206e6f74206578697374000000000000000000000000006000830152602082019050919050565b61097781610b41565b82525050565b600060208201905081810360008301526109968161092e565b9050919050565b60006020820190506109b2600083018461096e565b92915050565b60006040820190506109cd600083018561096e565b81810360208301526109df81846108f5565b90509392505050565b60006060820190506109fd600083018661096e565b8181036020830152610a0f81856108f5565b90508181036040830152610a2381846108f5565b9050949350505050565b600060e082019050610a42600083018a61096e565b8181036020830152610a5481896108f5565b90508181036040830152610a6881886108f5565b90508181036060830152610a7c81876108f5565b90508181036080830152610a9081866108f5565b9050610a9f60a083018561096e565b610aac60c08301846108e6565b98975050505050505050565b6000604051905081810181811067ffffffffffffffff82111715610adf57610ade610c66565b5b8060405250919050565b600067ffffffffffffffff821115610b0457610b03610c66565b5b601f19601f8301169050602081019050919050565b600081519050919050565b600082825260208201905092915050565b60008115159050919050565b6000819050919050565b82818337600083830152505050565b60005b83811015610b78578082015181840152602081019050610b5d565b83811115610b87576000848401525b50505050565b60006002820490506001821680610ba557607f821691505b60208210811415610bb957610bb8610c37565b5b50919050565b6000610bca82610b41565b91507fffffffffffffffffffffffffffffffffffffffffffffffffffffffffffffffff821415610bfd57610bfc610c08565b5b600182019050919050565b7f4e487b7100000000000000000000000000000000000000000000000000000000600052601160045260246000fd5b7f4e487b7100000000000000000000000000000000000000000000000000000000600052602260045260246000fd5b7f4e487b7100000000000000000000000000000000000000000000000000000000600052604160045260246000fd5b6000601f19601f8301169050919050565b610caf81610b41565b8114610cba57600080fd5b5056fea26469706673582212200c94c3546646a346f5eabbb939ee890813b14d9915019ed9e0e768348989644164736f6c63430008000033",
  "immutableReferences": {},
  "source": "// SPDX-License-Identifier: MIT\npragma solidity ^0.8.0;\n\ncontract TaskManagement {\n    struct Task {\n        uint256 id;\n        string title;\n        string description;\n        string status;\n        string assignedUser;\n        uint256 timestamp;\n        bool isCompleted;\n    }\n\n    mapping(uint256 => Task) public tasks;\n    uint256 public taskCount;\n\n    event TaskCreated(uint256 id, string title, string assignedUser);\n    event TaskUpdated(uint256 id, string status);\n    event TaskCompleted(uint256 id);\n\n    function createTask(string memory _title, string memory _description, string memory _assignedUser) public {\n        taskCount++;\n        tasks[taskCount] = Task(\n            taskCount,\n            _title,\n            _description,\n            \"Pending\",\n            _assignedUser,\n            block.timestamp,\n            false\n        );\n        emit TaskCreated(taskCount, _title, _assignedUser);\n    }\n\n    function updateTaskStatus(uint256 _id, string memory _status) public {\n        require(_id <= taskCount, \"Task does not exist\");\n        Task storage task = tasks[_id];\n        task.status = _status;\n        emit TaskUpdated(_id, _status);\n    }\n\n    function completeTask(uint256 _id) public {\n        require(_id <= taskCount, \"Task does not exist\");\n        Task storage task = tasks[_id];\n        task.isCompleted = true;\n        task.status = \"Completed\";\n        emit TaskCompleted(_id);\n    }\n}",
  "sourcePath": "/Users/admin/Desktop/cloudfrontend 2/backend/contracts/TaskManagement.sol",
  "compiler": {
    "name": "solc",
    "version": "0.8.0+commit.c7dfd78e.Emscripten.clang"
  },
  "schemaVersion": "3.4.16",
  "updatedAt": "2025-05-04T20:02:29.402Z",
  "networkType": "ethereum",
  "devdoc": {
    "kind": "dev",
    "methods": {},
    "version": 1
  },
  "userdoc": {
    "kind": "user",
    "methods": {},
    "version": 1
  }
}